S00F00004749505F6D63752E7372656391
S11300000C9448000C9465000C9465000C946500F5
S11300100C9465000C9465000C9465000C946500C8
S11300200C9465000C9465000C9465000C946500B8
S11300300C9465000C9465000C9465000C946500A8
S11300400C9440010C9465000C9465000C946500BC
S11300500C9430010C9465000C9465000C946500BC
S11300600C9465000C9465000C9465000C94650078
S11300700C9465000C9465000C946500C000C700E6
S1130080CE00D500DF00E900F000F700FE00050116
S113009011241FBECFEFD8E0DEBFCDBF11E0A0E03A
S11300A0B1E0E4E5FAE002C005900D92A231B10797
S11300B0D9F721E0A2E1B1E001C01D92A331B2075A
S11300C0E1F70E9467000C9428050C940000CF937C
S11300D0DF93CDB7DEB7C054D1090FB6F894DEBFB5
S11300E00FBECDBF0E94E7010E9464010E947B0104
S11300F08FEF87B978948091000182FF31C080919D
S11301007A0086FD2DC00E949D01BC0180E091E033
S11301100E94A60100E011E0F80180858F93878199
S11301208F9386818F9385818F938EE091E09F9347
S11301308F93CE0101967C019F938F930E943E0280
S1130140C7010E941C02F80180818B7F808398B1D3
S113015080E4892788B90FB6F894DEBF0FBECDBFFF
S1130160E0910D01EF3F39F28E2F90E0FC013197C1
S1130170EA30F10508F06DC0E25CFF4F0C943802E0
S113018081E00E9415028FEF80930D01B4CF82E0CD
S11301900E9415028FEF80930D01ADCF83E00E9482
S11301A015028FEF80930D01A6CF88B18F7788B9A0
S11301B084E00E9415028FEF80930D019CCF88B1DB
S11301C0806888B985E00E9415028FEF80930D0145
S11301D092CF86E00E9415028FEF80930D018BCFA2
S11301E087E00E9415028FEF80930D0184CF88E091
S11301F00E9415028FEF80930D017DCF89E00E944C
S113020015028FEF80930D0176CF8BE00E941502CB
S1130210E0E0F1E080858F9387818F9386818F93CF
S113022085818F938EE091E09F938F938E010F5F72
S11302301F4F1F930F930E943E02C8010E941C028D
S11302408FEF80930D010FB6F894DEBF0FBECDBFC4
S113025052CF80E00E9415028FEF80930D014BCFA7
S11302601F920F920FB60F9211248F938091C600A4
S113027080930D018F910F900FBE0F901F901895D2
S11302801F920F920FB60F9211248F93EF93FF9347
S113029080911201843120F48F5F809312010CC08D
S11302A010921201EAE7F0E0808180648083E0E04C
S11302B0F1E0808184608083FF91EF918F910F90B2
S11302C00FBE0F901F90189584B58E7F84BD85B5A1
S11302D0877F85BD84B5826084BD85B58D7F85BDEE
S11302E085B5856085BDEEE6F0E08081826080831F
S11302F089E587BD0895ECE7F0E080818F778083FE
S113030080818064808380818F7D80838081807EF2
S11303108083EAE7F0E080818560808380818D7F3F
S1130320808380818F7D8083AEE7B0E08C91816093
S11303308C9380818068808308958091790090E017
S1130340982F882720917800822B0895FC0161154D
S113035022E07207B8F4808181FD07C08260808347
S11303601186128613861486089581859285A38545
S1130370B485860F971FA11DB11D81879287A3871E
S1130380B4870895808181FF0FC08D7F808381852C
S11303909285A385B48585839683A783B0871186C8
S11303A0128613861486089585819681A781B08567
S11303B0813024E09207A105B10540F0861B970B1C
S11303C0A109B10985839683A783B08708958AB16B
S11303D08E7F8AB98AB182608AB98BB182608BB907
S11303E0E0ECF0E080818D7F808387E190E0909362
S11303F0C5008093C400E2ECF0E080818F738083B9
S113040080818F7C80838081877F8083A1ECB0E0B2
S11304108C918B7F8C938081866080838C918068A3
S11304208C938C9188618C9308959091C00095FF72
S1130430FCCF8093C60008950F931F93CF93DF934F
S11304408C01C0E0D0E00CC0F801EC0FFD1F8081EE
S1130450811103C00E94150206C00E941502219654
S1130460C034D10588F3DF91CF911F910F91089586
S1130470EE0FFF1F0590F491E02D0994AEE0B0E07B
S1130480E4E4F2E00C94FF040D891E8986E08C8379
S11304901A8309838FEF9FE79E838D83AE01475EA6
S11304A05F4F6F89788DCE0101960E946002EF81C3
S11304B0F885E00FF11F10822E96E4E00C941B05E2
S11304C0ABE0B0E0E6E6F2E00C94F1046C017B01F1
S11304D08A01FC0117821682838181FFCCC1CE017F
S11304E001963C01F6019381F70193FD859193FFF9
S11304F081917F01882309F4BAC1853239F493FDCF
S1130500859193FF81917F01853229F4B60190E0B2
S11305100E945704E7CF912C212C312CFFE1F315D5
S1130520D8F08B3279F038F4803279F08332A1F448
S1130530232D20611DC08D3261F0803369F4232D99
S1130540216016C0832D8260382EE32DE4603E2E98
S11305502AC0F32DF8601DC037FC2DC020ED280FF4
S11305602A3040F08E32B9F436FC81C1232D206448
S1130570322E19C036FE06C08AE0989E200D112442
S1130580922E11C0EAE02E9E200D1124222EF32D6E
S1130590F0623F2E08C08C3621F4832D8068382EFB
S11305A002C0883641F4F70193FD859193FF819150
S11305B07F018111B3CF982F9F7D9554933028F4F8
S11305C00C5F1F4F9FE399830DC0833631F083374F
S11305D071F0833509F059C021C0F8018081898305
S11305E00E5F1F4F88248394912C530113C028015C
S11305F0F2E04F0E511CF801A080B18036FE03C01A
S1130600692D70E002C06FEF7FEFC5010E944C04BA
S11306104C018201F32DFF773F2E16C0280122E002
S1130620420E511CF801A080B18036FE03C0692D32
S113063070E002C06FEF7FEFC5010E9441044C01DE
S1130640F32DF0683F2E820133FC1BC0822D90E015
S113065088169906B0F4B60180E290E00E9457042F
S11306602A94F4CFF50137FC859137FE81915F011F
S1130670B60190E00E94570421102A9421E0821AC6
S113068091088114910471F7E8C0843611F0893619
S113069041F5F80137FE07C0608171818281938141
S11306A00C5F1F4F08C060817181072E000C880BFE
S11306B0990B0E5F1F4FF32DFF763F2E97FF09C056
S11306C090958095709561957F4F8F4F9F4FF068FF
S11306D03F2E2AE030E0A3010E949304882E86185E
S11306E045C0853731F4232D2F7EB22E2AE030E029
S11306F025C0932D997FB92E8F36C1F018F4883513
S113070079F0B5C0803719F0883721F0B0C0E92FEF
S1130710E061BE2EB4FE0DC0FB2DF460BF2E09C0F7
S113072034FE0AC0292F2660B22E06C028E030E02D
S113073005C020E130E002C020E132E0F801B7FE5C
S113074007C060817181828193810C5F1F4F06C055
S11307506081718180E090E00E5F1F4FA3010E94D1
S11307609304882E8618FB2DFF773F2E36FE0DC08E
S1130770232D2E7FA22E891458F434FE0BC032FC94
S113078009C0832D8E7EA82E05C0B82CA32C03C0CF
S1130790B82C01C0B92CA4FE0FC0FE01E80DF11D58
S11307A08081803321F49A2D997EA92E09C0A2FE5E
S11307B006C0B394B39404C08A2D867809F0B39428
S11307C0A3FC11C0A0FE06C0B21488F4280C922C1D
S11307D09B180EC0B21460F4B60180E290E00E944F
S11307E05704B394F7CFB21418F42B1802C0982C02
S11307F0212CA4FE10C0B60180E390E00E945704AF
S1130800A2FE17C0A1FC03C088E790E002C088E5FF
S113081090E0B6010CC08A2D867859F0A1FE02C082
S11308208BE201C080E2A7FC8DE2B60190E00E9459
S11308305704891438F4B60180E390E00E94570409
S11308409A94F7CF8A94F301E80DF11D8081B601E3
S113085090E00E9457048110F5CF222009F442CE83
S1130860B60180E290E00E9457042A94F6CFF60184
S11308708681978102C08FEF9FEF2B96E2E10C9463
S11308800D05FC010590615070400110D8F780956A
S113089090958E0F9F1F0895FC0161507040019048
S11308A00110D8F7809590958E0F9F1F08950F9390
S11308B01F93CF93DF93FB01238121FD03C08FEFAF
S11308C09FEF2CC022FF16C04681578124813581B9
S11308D04217530744F4A081B1819D012F5F3F4F1C
S11308E0318320838C93268137812F5F3F4F378359
S11308F0268314C08B01EC01FB010084F185E02DFB
S11309000995892BE1F6D80116968D919C9117973C
S1130910019617969C938E931697CE01DF91CF91F3
S11309201F910F910895FA01AA27283051F120311F
S113093081F1E8946F936E7F6E5F7F4F8F4F9F4F6F
S1130940AF4FB1E03ED0B4E03CD0670F781F891FB1
S11309509A1FA11D680F791F8A1F911DA11D6A0F7F
S1130960711D811D911DA11D20D009F468943F9132
S11309702AE0269F11243019305D3193DEF6CF0131
S11309800895462F4770405D4193B3E00FD0C9F7F7
S1130990F6CF462F4F70405D4A3318F0495D31FD64
S11309A04052419302D0A9F7EACFB4E0A6959795B7
S11309B0879577956795BA95C9F70097610571058D
S11309C008959B01AC010A2E0694579547953795D7
S11309D02795BA95C9F7620F731F841F951FA01D31
S11309E008952F923F924F925F926F927F928F92CF
S11309F09F92AF92BF92CF92DF92EF92FF920F93AA
S1130A001F93CF93DF93CDB7DEB7CA1BDB0B0FB6B3
S1130A10F894DEBF0FBECDBF09942A883988488870
S1130A205F846E847D848C849B84AA84B984C88406
S1130A30DF80EE80FD800C811B81AA81B981CE0FFD
S1130A40D11D0FB6F894DEBF0FBECDBFED010895E2
S1070A50F894FFCF44
S1130A5401640000003200000000000000FF256C67
S1050A64750017
S9030000FC
