S00F00004749505F6D63752E7372656391
S11300000C943E000C945B000C945B000C945B001D
S11300100C945B000C945B000C945B000C945B00F0
S11300200C945B000C945B000C945B000C945B00E0
S11300300C945B000C945B000C945B000C945B00D0
S11300400C945B000C945B000C945B000C945B00C0
S11300500C94D9000C945B000C945B000C945B0032
S11300600C945B000C945B000C945B000C945B00A0
S11300700C945B000C945B000C945B0011241FBE79
S1130080CFEFD8E0DEBFCDBF11E0A0E0B1E0E4E8FF
S1130090F2E002C005900D92A230B107D9F721E039
S11300A0A2E0B1E001C01D92A230B207E1F70E94C4
S11300B05D000C9440010C9400000E940B010E940E
S11300C0E9008FEF87B9789480910001863009F4B4
S11300D046C068F4833041F128F48130B9F08230AD
S11300E0E1F060C0843039F1853079F15BC089304A
S11300F009F44AC028F48730C9F18830F1F152C0BC
S11301008A3009F448C08F3FF9F24CC081E00E9464
S113011039018FEF80930001D7CF82E00E9439012B
S11301208FEF80930001D0CF83E00E9439018FEFDD
S113013080930001C9CF88B18F7788B984E00E9489
S113014039018FEF80930001BFCF88B1806888B9EF
S113015085E00E9439018FEF80930001B5CF86E0DE
S11301600E9439018FEF80930001AECF87E00E9497
S113017039018FEF80930001A7CF88E00E943901F5
S11301808FEF80930001A0CF89E00E9439018FEFA7
S11301908093000199CF8BE00E9439018FEF809307
S11301A0000192CF80E00E9439018FEF809300011B
S11301B08BCF1F920F920FB60F9211248F938091C1
S11301C0C600809300018F910F900FBE0F901F9077
S11301D01895ECE7F0E080818F77808380818064DC
S11301E0808380818F7D80838081807E8083EAE725
S11301F0F0E080818560808380818D7F8083808131
S11302008F7D8083AEE7B0E08C9181608C93808198
S11302108068808308958AB18E7F8AB98AB18260AA
S11302208AB98BB182608BB9E0ECF0E080818D7F7C
S1130230808387E190E09093C5008093C400E2EC52
S1130240F0E080818F73808380818F7C80838081C4
S1130250877F8083A1ECB0E08C918B7F8C9380812D
S1130260866080838C9180688C938C9188618C9358
S113027008959091C00095FFFCCF8093C600089527
S1070280F894FFCF1C
S1050284FF0075
S9030000FC
