S00F00004749505F6D63752E7372656391
S11300000C9448000C9465000C9465000C946500F5
S11300100C9465000C9465000C9465000C946500C8
S11300200C9465000C9465000C9465000C946500B8
S11300300C9465000C9465000C9465000C946500A8
S11300400C9410010C9465000C9465000C946500EC
S11300500C9400010C9465000C9465000C946500EC
S11300600C9465000C9465000C9465000C94650078
S11300700C9465000C9465000C9465009B00A20030
S1130080A900B000BA00C400CB00D200D900E0003F
S113009011241FBECFEFD8E0DEBFCDBF11E0A0E03A
S11300A0B1E0E6E8F4E002C005900D92AE30B1078D
S11300B0D9F721E0AEE0B1E001C01D92AF30B20744
S11300C0E1F70E9467000C9441020C940000CF9366
S11300D0DF93CDB7DEB7C054D1090FB6F894DEBFB5
S11300E00FBECDBF0E94B8010E942F010E9446019D
S11300F08FEF87B978948091000182FF0CC00E9431
S11301007101BC0180E091E00E947D01E0E0F1E03A
S113011080818B7F8083E0910D01EF3F61F38E2F0F
S113012090E0FC013197EA30F10508F062C0E25C2E
S1130130FF4F0C94090281E00E94E6018FEF809347
S11301400D01D9CF82E00E94E6018FEF80930D016B
S1130150D2CF83E00E94E6018FEF80930D01CBCFD5
S113016088B18F7788B984E00E94E6018FEF80938D
S11301700D01C1CF88B1806888B985E00E94E6018D
S11301808FEF80930D01B7CF86E00E94E6018FEFD9
S113019080930D01B0CF87E00E94E6018FEF80933A
S11301A00D01A9CF88E00E94E6018FEF80930D0135
S11301B0A2CF89E00E94E6018FEF80930D019BCFCF
S11301C08BE00E94E6016091050170910601809127
S11301D00701909108012AE0AE014F5F5F4F0E9432
S11301E00F02CE0101960E94ED018FEF80930D0165
S11301F082CF80E00E94E6018FEF80930D017BCFD8
S11302001F920F920FB60F9211248F938091C60004
S113021080930D018F910F900FBE0F901F90189532
S11302201F920F920FB60F9211248F93EF93FF93A7
S113023080910E01843120F48F5F80930E0107C0FA
S113024010920E01E0E0F1E0808184608083FF91F0
S1130250EF918F910F900FBE0F901F90189584B55A
S11302608E7F84BD85B5877F85BD84B5826084BD5E
S113027085B58D7F85BD85B5856085BDEEE6F0E0ED
S113028080818260808389E587BD0895ECE7F0E092
S113029080818F77808380818064808380818F7D5B
S11302A080838081807E8083EAE7F0E080818560BE
S11302B0808380818D7F808380818F7D8083AEE782
S11302C0B0E08C9181608C938081806880830895F4
S11302D08091790090E0982F882720917800822BD4
S11302E00895EAE7F0E080818064808380917A0059
S11302F086FDFCCF0E9468010895FC01611582E02F
S11303007807B8F4808181FD07C0826080831186FC
S1130310128613861486089581859285A385B485F3
S1130320860F971FA11DB11D81879287A387B4876C
S11303300895808181FF0FC08D7F808381859285A0
S1130340A385B48585839683A783B0871186128697
S113035013861486089585819681A781B085861BAE
S1130360970BA109B10985839683A783B087089564
S11303708AB18E7F8AB98AB182608AB98BB1826070
S11303808BB9E0ECF0E080818D7F808387E190E0A1
S11303909093C5008093C400E2ECF0E080818F73F9
S11303A0808380818F7C80838081877F8083A1ECA0
S11303B0B0E08C918B7F8C938081866080838C915C
S11303C080688C938C9188618C9308959091C0007F
S11303D095FFFCCF8093C60008950F931F93CF938E
S11303E0DF938C01C0E0D0E00CC0F801EC0FFD1FDE
S11303F08081811103C00E94E60106C00E94E601CB
S11304002196C034D10588F3DF91CF911F910F91CC
S11304100895EE0FFF1F0590F491E02D0994BB277A
S1130420FA01A62F6217710581059105330B30FB84
S113043066F0AA27660F771F881F991FAA1FA217A5
S113044010F0A21B63953850A9F7A05DAA3308F0F9
S1130450A95DA19336F7B111B1931082CA010C942E
S11304603102DC01FC01672F71917723E1F73297A8
S113047004C07C916D9370836291AE17BF07C8F37B
S10904800895F894FFCF7B
S111048601640000003200000000000000FFCE
S9030000FC
